:02000000212AB3
:100442008301232AFE3083168600831286018F01E0
:1004520090011008803ACF0080304F02031D332AEA
:1004620008300F02031C362A372A392A902A902A8A
:1004720083128D018E010E08803ACF0080304F0228
:10048200031D452A08300D02031C482A492A4B2A1B
:100492007A2A7A2A83121008803A8C000E08803A4F
:1004A2000C02031D562A0D080F02031C592A5A2A50
:1004B2005E2A013083128600612A83128601612A34
:1004C20042308C008C0B632A6400013083128D074A
:1004D20003188E0A00308E070E08803ACF00803053
:1004E2004F02031D762A08300D02031C792A7A2A4C
:1004F2004B2A0000013083128F070318900A003044
:1005020090071008803ACF0080304F02031D8B2ADB
:1005120008300F02031C8E2A8F2A392A902A83124E
:100522008F0190011008803ACF0080304F02031DE6
:100532009C2A08300F02031C9F2AA02AA22AF82A0A
:10054200F82A83128D018E010E08803ACF00803086
:100552004F02031DAE2A08300D02031CB12AB22A33
:10056200B42AE22AE22A83121008803A8C000E088A
:10057200803A0C02031DBF2A0D080F02031CC22A77
:10058200C32AC62A83128601C92A01308312860031
:1005920042308C008C0BCB2A6400013083128D0711
:1005A20003188E0A00308E070E08803ACF00803082
:1005B2004F02031DDE2A08300D02031CE12AE22A43
:1005C200B42A0000013083128F070318900A00300A
:1005D20090071008803ACF0080304F02031DF32AA3
:1005E20008300F02031CF62AF72AA22AF82A423000
:1005F20083128C008C0BFB2A6400000083128F0193
:1006020090011008803ACF0080304F02031D0B2B5F
:1006120008300F02031C0E2B0F2B112B682B682B9B
:1006220083128D018E010E08803ACF0080304F0276
:10063200031D1D2B08300D02031C202B212B232B05
:10064200522B522B83121008803A8C000E08803AEB
:100652000C02031D2E2B0D080F02031C312B322B13
:10066200362B013083128600392B83128601392BF7
:1006720042308C008C0B3B2B6400013083128D07BF
:1006820003188E0A00308E070E08803ACF008030A1
:100692004F02031D4E2B08300D02031C512B522B0F
:1006A200232B0000013083128F070318900A0030B9
:1006B20090071008803ACF0080304F02031D632B51
:1006C20008300F02031C662B672B112B682B01309D
:1006D200831286008F0190011008803ACF0080308B
:1006E2004F02031D762B40300F02031C792B7A2B0D
:1006F2007C2B962B962B423083128C008C0B7F2BFB
:100702006400013083128F070318900A00309007AB
:100712001008803ACF0080304F02031D922B4030E8
:100722000F02031C952B962B7C2B000083128F014A
:1007320090011008803ACF0080304F02031DA32B96
:1007420008300F02031CA62BA72BA92BFE2BFE2B76
:1007520083128D018E010E08803ACF0080304F0245
:10076200031DB52B08300D02031CB82BB92BBB2B74
:10077200E92BE92B83121008803A8C000E08803A8C
:100782000C02031DC62B0D080F02031CC92BCA2B1A
:10079200CD2B83128601D02B01308312860042308A
:1007A2008C008C0BD22B6400013083128D0703184E
:1007B2008E0A00308E070E08803ACF0080304F023A
:1007C200031DE52B08300D02031CE82BE92BBB2B84
:1007D2000000013083128F070318900A003090073F
:1007E2001008803ACF0080304F02031DFA2B0830E8
:0E07F2000F02031CFD2BFE2BA92B000000287C
:00000001FF
