:020000003B2B98
:100676008301682B831290019101412B0C1C442BA2
:10068600452B4B2B0E0890070318910A0F0891076C
:10069600013003108E0D8F0DFF3E031D4C2B0130D4
:1006A60003108D0C8C0CFF3E031D532B0D080C0400
:1006B600031D5E2B5F2B412B602B11088D018D07CF
:1006C60010088C018C07672B08000F308312A200DC
:1006D6002208A7000B30A2002208A8000D30A300B4
:1006E6000030A400A501A60100008312A90105306F
:1006F6002902031C7F2B802B822BA72BA72B2808D4
:10070600A20022089200240894019407230893016A
:1007160093072708A92383121308A601A607120820
:10072600A501A5072608A401A4072508A301A30778
:10073600000001308312A2002208A9070530290211
:10074600031CA62BA72B822B0000002883129F00D8
:1007560014088D018D0713088C018C0716308E0046
:1007660000308F003D2383120C0995000D09960079
:10077600950A0319960A12089700980117088C0023
:1007860018088D001D308E0000308F003D23831227
:100796000C0999000D099A00990A03199A0A1F086B
:1007A6009B009C011B088C001C088D0026308E00C7
:1007B60000308F003D23831219080C079D001A088C
:1007C60003181A0A0D079E0015081D07A000160833
:1007D6000318160A1E07A1000530CF00210DA10C33
:1007E600A00CCF0BF12B210893019307200892014F
:0A07F6009207FF2BFF2B0000080004
:00000001FF
