:02000000BF2B14
:10077E008301C12B0F308316860083128D010A3040
:10078E000D02031CCB2BCC2BCE2BFF2BFF2B0618D5
:10079E00D12BD22BE42B8616F9308C0064008C0BF7
:1007AE00D52BD92B640083128612F9308C0064008D
:1007BE008C0BDE2BE22B6400F22B8616DE308C00C7
:1007CE008C0BE72B83128612DE308C00EE2B64002E
:1007DE008C0BED2BF22B0000013083128C000C08D9
:1007EE008D070A300D02031CFD2BFE2BCE2BFF2B8B
:0207FE000028D1
:00000001FF
