:020000040000FA
:020000001028C6
:100020008316880183120A30A200A0010130A100CA
:10003000A0080319262888178220A10A2108200277
:1000400003181B2821082202031C3228881382204F
:10005000A10A2108220203182628A00A2008220249
:10006000031816280130A100A00803193E2888179C
:100070008220A10A21082002031837288813822031
:10008000A10A2108220203183E28A0032008031D0C
:1000900032280130A100A0080319592888178220AE
:1000A000A10A2108200203184E2821082202031C5D
:1000B000652888138220A10A2108220203185928E2
:1000C000A00A20082202031849288C200130A10030
:1000D00020082202031C6C2888178220A10A21080C
:1000E000200203186C28A0080319762888138220A0
:1000F000A10A2108220203187628A0032008031D64
:10010000662800000230A3000A30A4000000A40BFF
:100110008628A30B842808000A30A7001430A50005
:100120000A30A6000000A60B9228A50B9028A70B6A
:040130008E2808000D
:00000001FF
