:020000040000FA
:100000000F30A0000730A1000330A2000030A30091
:100010000030A400A500A700A80000000530A9003A
:100020000000A9080000291D762800001F202408D0
:10003000A2002508A3000000A90B1528762800308F
:10004000A700A80026300000A6000030000020070E
:100050000318A80AA7000000A60B27282708A40059
:100060002808A5001D300000A6000030A700A80049
:100070000000000021070318A80AA7000000A60B33
:1000800039280000A809A709A80AA70A000028081B
:10009000A5072708A4070318A503000016300000D1
:1000A000A6000030A700A8000000000027082207D3
:1000B0000318A80AA7002808A507A60B55280000C2
:1000C000A809A709A80AA70A00002808A507000090
:1000D0002708A4070318A50300000530A6000000A8
:0E00E0000310A50CA40CA60B6F28080000004E
:00000001FF
