:020000040000FA
:100000000F30A0000730A1000330A2000030A30091
:100010000030A400A500A700A80000000530A9003A
:100020000000A9080000291D6A2800001B2000000C
:10003000A90B15286A280030A700A8002630000068
:10004000A6000030000020070318A80AA70000003F
:10005000A60B23282708A4002808A5001D300000AF
:10006000A6000030A700A800000000002107031828
:10007000A80AA7000000A60B35280000A809A709B8
:10008000A80AA70A00002808A5072708A40703183C
:10009000A503000016300000A6000030A700A8004D
:1000A00000000000270822070318A80AA700280854
:1000B000A507A60B51280000A809A709A80AA70AA6
:1000C00000002808A50700002708A4070318A503B7
:0600D00000000800000022
:00000001FF
