:02000000972B3C
:10072E008301C12B83129000910192010C088E005F
:10073E000E0893009308031DA52BA62BA82BB92BEF
:10074E00B92B10088E008F010E0891070318920A1C
:10075E000F089207013093029308031DB72BB82B95
:10076E00A82BB92B12088D018D0711088C018C074F
:10077E00C02B0800643083129400140897003230A6
:10078E009400140898001930940014089900000081
:10079E0006308312940014088C00170899238312D4
:1007AE000D08960196070C089501950706309400E2
:1007BE0014088C001808992383120C089507031847
:1007CE00960A0D0896070430940014088C00190838
:1007DE00992383120C0895070318960A0D0896079D
:1007EE0004300310960C950CFF3E031DF82B0000F1
:0207FE000028D1
:00000001FF
