:020000040000FA
:1000000083167F308600831200308600000086133E
:10001000412006180C280628000086173220861377
:100020004120061814280C28000086173720861354
:100030003C2006181C281428000086173C20861334
:100040003720061824281C28000086174120861314
:10005000322006182C282428000041208617061874
:1000600006282C282730A000A00B342808004E308A
:10007000A000A00B392808007530A000A00B3E2876
:0E00800008009C30A000A00B432808000000E0
:00000001FF
